{
  "_format": "hh-sol-artifact-1",
  "contractName": "MarketPlace",
  "sourceName": "contracts/MarketPlace.sol",
  "abi": [
    {
      "anonymous": false,
      "inputs": [
        {
          "indexed": false,
          "internalType": "uint256",
          "name": "id",
          "type": "uint256"
        },
        {
          "indexed": false,
          "internalType": "bytes32",
          "name": "capacityId",
          "type": "bytes32"
        },
        {
          "indexed": false,
          "internalType": "address",
          "name": "bidder",
          "type": "address"
        },
        {
          "indexed": false,
          "internalType": "uint256",
          "name": "amount",
          "type": "uint256"
        }
      ],
      "name": "BidAccepted",
      "type": "event"
    },
    {
      "anonymous": false,
      "inputs": [
        {
          "indexed": false,
          "internalType": "uint256",
          "name": "id",
          "type": "uint256"
        },
        {
          "indexed": false,
          "internalType": "bytes32",
          "name": "capacityId",
          "type": "bytes32"
        },
        {
          "indexed": false,
          "internalType": "address",
          "name": "bidder",
          "type": "address"
        },
        {
          "indexed": false,
          "internalType": "uint256",
          "name": "amount",
          "type": "uint256"
        }
      ],
      "name": "BidPlaced",
      "type": "event"
    },
    {
      "anonymous": false,
      "inputs": [
        {
          "indexed": false,
          "internalType": "uint256",
          "name": "id",
          "type": "uint256"
        },
        {
          "indexed": false,
          "internalType": "bytes32",
          "name": "capacityId",
          "type": "bytes32"
        },
        {
          "indexed": false,
          "internalType": "address",
          "name": "bidder",
          "type": "address"
        }
      ],
      "name": "BidWithdrawn",
      "type": "event"
    },
    {
      "anonymous": false,
      "inputs": [
        {
          "indexed": false,
          "internalType": "bytes32",
          "name": "id",
          "type": "bytes32"
        },
        {
          "indexed": false,
          "internalType": "address",
          "name": "supplier",
          "type": "address"
        },
        {
          "indexed": false,
          "internalType": "bytes32",
          "name": "manufacturerId",
          "type": "bytes32"
        }
      ],
      "name": "CapacityAdded",
      "type": "event"
    },
    {
      "anonymous": false,
      "inputs": [
        {
          "indexed": false,
          "internalType": "bytes32",
          "name": "id",
          "type": "bytes32"
        },
        {
          "indexed": false,
          "internalType": "address",
          "name": "buyer",
          "type": "address"
        },
        {
          "indexed": false,
          "internalType": "bytes32",
          "name": "manufacturerId",
          "type": "bytes32"
        }
      ],
      "name": "CapacityPurchased",
      "type": "event"
    },
    {
      "inputs": [
        {
          "internalType": "bytes32",
          "name": "_capacityId",
          "type": "bytes32"
        },
        {
          "internalType": "uint256",
          "name": "_bidId",
          "type": "uint256"
        }
      ],
      "name": "acceptBid",
      "outputs": [],
      "stateMutability": "payable",
      "type": "function"
    },
    {
      "inputs": [
        {
          "internalType": "bytes32",
          "name": "_id",
          "type": "bytes32"
        },
        {
          "internalType": "uint256",
          "name": "_minPrice",
          "type": "uint256"
        },
        {
          "internalType": "bytes32",
          "name": "manufacturerId",
          "type": "bytes32"
        }
      ],
      "name": "addCapacity",
      "outputs": [],
      "stateMutability": "nonpayable",
      "type": "function"
    },
    {
      "inputs": [
        {
          "internalType": "bytes32",
          "name": "",
          "type": "bytes32"
        }
      ],
      "name": "capacities",
      "outputs": [
        {
          "internalType": "bytes32",
          "name": "id",
          "type": "bytes32"
        },
        {
          "internalType": "bytes32",
          "name": "manufacturerId",
          "type": "bytes32"
        },
        {
          "internalType": "address payable",
          "name": "supplier",
          "type": "address"
        },
        {
          "internalType": "bool",
          "name": "available",
          "type": "bool"
        },
        {
          "internalType": "uint256",
          "name": "minPrice",
          "type": "uint256"
        }
      ],
      "stateMutability": "view",
      "type": "function"
    },
    {
      "inputs": [
        {
          "internalType": "bytes32",
          "name": "",
          "type": "bytes32"
        },
        {
          "internalType": "uint256",
          "name": "",
          "type": "uint256"
        }
      ],
      "name": "capacityBids",
      "outputs": [
        {
          "internalType": "uint256",
          "name": "id",
          "type": "uint256"
        },
        {
          "internalType": "bytes32",
          "name": "capacityId",
          "type": "bytes32"
        },
        {
          "internalType": "address",
          "name": "bidder",
          "type": "address"
        },
        {
          "internalType": "uint256",
          "name": "amount",
          "type": "uint256"
        },
        {
          "internalType": "bool",
          "name": "active",
          "type": "bool"
        }
      ],
      "stateMutability": "view",
      "type": "function"
    },
    {
      "inputs": [
        {
          "internalType": "bytes32",
          "name": "_capacityId",
          "type": "bytes32"
        }
      ],
      "name": "placeBid",
      "outputs": [],
      "stateMutability": "payable",
      "type": "function"
    },
    {
      "inputs": [
        {
          "internalType": "bytes32",
          "name": "_capacityId",
          "type": "bytes32"
        }
      ],
      "name": "withdrawBid",
      "outputs": [],
      "stateMutability": "nonpayable",
      "type": "function"
    }
  ],
  "bytecode": "0x608060405234801561001057600080fd5b50611674806100206000396000f3fe6080604052600436106100555760003560e01c806313f16c671461005a578063497ecfc5146100765780634d0dfa7114610092578063541f447b146100d357806376aea9fa14610114578063f7fd24c71461013d575b600080fd5b610074600480360381019061006f9190610d2f565b610166565b005b610090600480360381019061008b9190610d6f565b6104e8565b005b34801561009e57600080fd5b506100b960048036038101906100b49190610d6f565b6107bb565b6040516100ca959493929190610e16565b60405180910390f35b3480156100df57600080fd5b506100fa60048036038101906100f59190610d2f565b61081e565b60405161010b959493929190610e8a565b60405180910390f35b34801561012057600080fd5b5061013b60048036038101906101369190610edd565b61089e565b005b34801561014957600080fd5b50610164600480360381019061015f9190610d6f565b610a40565b005b816000801b60008083815260200190815260200160002060000154036101c1576040517f08c379a00000000000000000000000000000000000000000000000000000000081526004016101b890610f8d565b60405180910390fd5b600080600085815260200190815260200160002090508060020160149054906101000a900460ff16610228576040517f08c379a000000000000000000000000000000000000000000000000000000000815260040161021f90610ff9565b60405180910390fd5b6000600160008681526020019081526020016000209050600084118015610253575080805490508411155b610292576040517f08c379a000000000000000000000000000000000000000000000000000000000815260040161028990611065565b60405180910390fd5b6000816001866102a291906110b4565b815481106102b3576102b26110e8565b5b906000526020600020906005020190508060040160009054906101000a900460ff16610314576040517f08c379a000000000000000000000000000000000000000000000000000000000815260040161030b90611163565b60405180910390fd5b60008360020160146101000a81548160ff02191690831515021790555060005b82805490508110156103a45760018661034d91906110b4565b8114610391576000838281548110610368576103676110e8565b5b906000526020600020906005020160040160006101000a81548160ff0219169083151502179055505b808061039c90611183565b915050610334565b508260020160009054906101000a900473ffffffffffffffffffffffffffffffffffffffff1673ffffffffffffffffffffffffffffffffffffffff166108fc82600301549081150290604051600060405180830381858888f19350505050158015610413573d6000803e3d6000fd5b507f430d13f878ca6cfbe0c5cc7c6d521c75d8d3d13f3a0a82f178588ac329b9c9bd85878360020160009054906101000a900473ffffffffffffffffffffffffffffffffffffffff16846003015460405161047194939291906111cb565b60405180910390a17f742880ae9436ea054e623ef22bc36e2ecd02029650a82eb5d8abdef47cdd8fd883600001548260020160009054906101000a900473ffffffffffffffffffffffffffffffffffffffff1685600101546040516104d893929190611210565b60405180910390a1505050505050565b806000801b6000808381526020019081526020016000206000015403610543576040517f08c379a000000000000000000000000000000000000000000000000000000000815260040161053a90610f8d565b60405180910390fd5b60008083815260200190815260200160002060020160149054906101000a900460ff166105a5576040517f08c379a000000000000000000000000000000000000000000000000000000000815260040161059c90610ff9565b60405180910390fd5b600034116105e8576040517f08c379a00000000000000000000000000000000000000000000000000000000081526004016105df906112b9565b60405180910390fd5b34600080848152602001908152602001600020600301541015610640576040517f08c379a00000000000000000000000000000000000000000000000000000000081526004016106379061134b565b60405180910390fd5b600160008381526020019081526020016000206040518060a00160405280600180600087815260200190815260200160002080549050610680919061136b565b81526020018481526020013373ffffffffffffffffffffffffffffffffffffffff168152602001348152602001600115158152509080600181540180825580915050600190039060005260206000209060050201600090919091909150600082015181600001556020820151816001015560408201518160020160006101000a81548173ffffffffffffffffffffffffffffffffffffffff021916908373ffffffffffffffffffffffffffffffffffffffff1602179055506060820151816003015560808201518160040160006101000a81548160ff02191690831515021790555050507fd48b7a8c8f8cb173b30ea0425dcca27e64f15b8654b8127ac422ad33340b916560016000848152602001908152602001600020805490508333346040516107af94939291906111cb565b60405180910390a15050565b60006020528060005260406000206000915090508060000154908060010154908060020160009054906101000a900473ffffffffffffffffffffffffffffffffffffffff16908060020160149054906101000a900460ff16908060030154905085565b6001602052816000526040600020818154811061083a57600080fd5b9060005260206000209060050201600091509150508060000154908060010154908060020160009054906101000a900473ffffffffffffffffffffffffffffffffffffffff16908060030154908060040160009054906101000a900460ff16905085565b6000801b83036108e3576040517f08c379a00000000000000000000000000000000000000000000000000000000081526004016108da906113eb565b60405180910390fd5b60008211610926576040517f08c379a000000000000000000000000000000000000000000000000000000000815260040161091d9061147d565b60405180910390fd5b6040518060a001604052808481526020018281526020013373ffffffffffffffffffffffffffffffffffffffff16815260200160011515815260200183815250600080858152602001908152602001600020600082015181600001556020820151816001015560408201518160020160006101000a81548173ffffffffffffffffffffffffffffffffffffffff021916908373ffffffffffffffffffffffffffffffffffffffff16021790555060608201518160020160146101000a81548160ff021916908315150217905550608082015181600301559050507f96ded9d034f11c1bc75ebd901bb0929f2628a4fcf5245d9549dc00a882cddaea833383604051610a3393929190611210565b60405180910390a1505050565b806000801b6000808381526020019081526020016000206000015403610a9b576040517f08c379a0000000000000000000000000000000000000000000000000000000008152600401610a9290610f8d565b60405180910390fd5b60006001600084815260200190815260200160002090506000818054905011610af9576040517f08c379a0000000000000000000000000000000000000000000000000000000008152600401610af0906114e9565b60405180910390fd5b60008160018380549050610b0d91906110b4565b81548110610b1e57610b1d6110e8565b5b906000526020600020906005020190503373ffffffffffffffffffffffffffffffffffffffff168160020160009054906101000a900473ffffffffffffffffffffffffffffffffffffffff1673ffffffffffffffffffffffffffffffffffffffff1614610bc0576040517f08c379a0000000000000000000000000000000000000000000000000000000008152600401610bb79061157b565b60405180910390fd5b8060040160009054906101000a900460ff16610c11576040517f08c379a0000000000000000000000000000000000000000000000000000000008152600401610c08906115e7565b60405180910390fd5b60008160040160006101000a81548160ff0219169083151502179055503373ffffffffffffffffffffffffffffffffffffffff166108fc82600301549081150290604051600060405180830381858888f19350505050158015610c78573d6000803e3d6000fd5b507fbf4df954ace348379054e1626dfe825f120ed8ba2495715f655c65a4c67d864381600001548533604051610cb093929190611607565b60405180910390a150505050565b600080fd5b6000819050919050565b610cd681610cc3565b8114610ce157600080fd5b50565b600081359050610cf381610ccd565b92915050565b6000819050919050565b610d0c81610cf9565b8114610d1757600080fd5b50565b600081359050610d2981610d03565b92915050565b60008060408385031215610d4657610d45610cbe565b5b6000610d5485828601610ce4565b9250506020610d6585828601610d1a565b9150509250929050565b600060208284031215610d8557610d84610cbe565b5b6000610d9384828501610ce4565b91505092915050565b610da581610cc3565b82525050565b600073ffffffffffffffffffffffffffffffffffffffff82169050919050565b6000610dd682610dab565b9050919050565b610de681610dcb565b82525050565b60008115159050919050565b610e0181610dec565b82525050565b610e1081610cf9565b82525050565b600060a082019050610e2b6000830188610d9c565b610e386020830187610d9c565b610e456040830186610ddd565b610e526060830185610df8565b610e5f6080830184610e07565b9695505050505050565b6000610e7482610dab565b9050919050565b610e8481610e69565b82525050565b600060a082019050610e9f6000830188610e07565b610eac6020830187610d9c565b610eb96040830186610e7b565b610ec66060830185610e07565b610ed36080830184610df8565b9695505050505050565b600080600060608486031215610ef657610ef5610cbe565b5b6000610f0486828701610ce4565b9350506020610f1586828701610d1a565b9250506040610f2686828701610ce4565b9150509250925092565b600082825260208201905092915050565b7f436170616369747920646f6573206e6f742065786973742e0000000000000000600082015250565b6000610f77601883610f30565b9150610f8282610f41565b602082019050919050565b60006020820190508181036000830152610fa681610f6a565b9050919050565b7f4361706163697479206973206e6f7420617661696c61626c652e000000000000600082015250565b6000610fe3601a83610f30565b9150610fee82610fad565b602082019050919050565b6000602082019050818103600083015261101281610fd6565b9050919050565b7f496e76616c6964206269642049442e0000000000000000000000000000000000600082015250565b600061104f600f83610f30565b915061105a82611019565b602082019050919050565b6000602082019050818103600083015261107e81611042565b9050919050565b7f4e487b7100000000000000000000000000000000000000000000000000000000600052601160045260246000fd5b60006110bf82610cf9565b91506110ca83610cf9565b92508282039050818111156110e2576110e1611085565b5b92915050565b7f4e487b7100000000000000000000000000000000000000000000000000000000600052603260045260246000fd5b7f426964206973206e6f206c6f6e676572206163746976652e0000000000000000600082015250565b600061114d601883610f30565b915061115882611117565b602082019050919050565b6000602082019050818103600083015261117c81611140565b9050919050565b600061118e82610cf9565b91507fffffffffffffffffffffffffffffffffffffffffffffffffffffffffffffffff82036111c0576111bf611085565b5b600182019050919050565b60006080820190506111e06000830187610e07565b6111ed6020830186610d9c565b6111fa6040830185610e7b565b6112076060830184610e07565b95945050505050565b60006060820190506112256000830186610d9c565b6112326020830185610e7b565b61123f6040830184610d9c565b949350505050565b7f42696420616d6f756e74206d7573742062652067726561746572207468616e2060008201527f7a65726f2e000000000000000000000000000000000000000000000000000000602082015250565b60006112a3602583610f30565b91506112ae82611247565b604082019050919050565b600060208201905081810360008301526112d281611296565b9050919050565b7f42696420616d6f756e74206d7573742062652067726561746572207468616e2060008201527f6f7220657175616c20746f20746865206d696e696d756d2070726963652e0000602082015250565b6000611335603e83610f30565b9150611340826112d9565b604082019050919050565b6000602082019050818103600083015261136481611328565b9050919050565b600061137682610cf9565b915061138183610cf9565b925082820190508082111561139957611398611085565b5b92915050565b7f43617061636974792049442069732072657175697265642e0000000000000000600082015250565b60006113d5601883610f30565b91506113e08261139f565b602082019050919050565b60006020820190508181036000830152611404816113c8565b9050919050565b7f4361706163697479207072696365206d7573742062652067726561746572207460008201527f68616e207a65726f2e0000000000000000000000000000000000000000000000602082015250565b6000611467602983610f30565b91506114728261140b565b604082019050919050565b600060208201905081810360008301526114968161145a565b9050919050565b7f4e6f206269647320657869737420666f72207468652063617061636974792e00600082015250565b60006114d3601f83610f30565b91506114de8261149d565b602082019050919050565b60006020820190508181036000830152611502816114c6565b9050919050565b7f4f6e6c7920746865206269646465722063616e2077697468647261772074686560008201527f6972206269642e00000000000000000000000000000000000000000000000000602082015250565b6000611565602783610f30565b915061157082611509565b604082019050919050565b6000602082019050818103600083015261159481611558565b9050919050565b7f4269642068617320616c7265616479206265656e2077697468647261776e2e00600082015250565b60006115d1601f83610f30565b91506115dc8261159b565b602082019050919050565b60006020820190508181036000830152611600816115c4565b9050919050565b600060608201905061161c6000830186610e07565b6116296020830185610d9c565b6116366040830184610e7b565b94935050505056fea264697066735822122089d2caea919efbd5b45c5ffd69c8305a8f33c6abaf8f0a71e3f7e4b60804262c64736f6c63430008110033",
  "linkReferences": {},
  "deployedLinkReferences": {}
}